{
  "contractName": "ERC721Connector",
  "abi": [
    {
      "inputs": [
        {
          "internalType": "string",
          "name": "name",
          "type": "string"
        },
        {
          "internalType": "string",
          "name": "symbol",
          "type": "string"
        }
      ],
      "stateMutability": "nonpayable",
      "type": "constructor"
    },
    {
      "anonymous": false,
      "inputs": [
        {
          "indexed": true,
          "internalType": "address",
          "name": "_owner",
          "type": "address"
        },
        {
          "indexed": true,
          "internalType": "address",
          "name": "_approved",
          "type": "address"
        },
        {
          "indexed": true,
          "internalType": "uint256",
          "name": "_tokenId",
          "type": "uint256"
        }
      ],
      "name": "Approval",
      "type": "event"
    },
    {
      "anonymous": false,
      "inputs": [
        {
          "indexed": true,
          "internalType": "address",
          "name": "_from",
          "type": "address"
        },
        {
          "indexed": true,
          "internalType": "address",
          "name": "_to",
          "type": "address"
        },
        {
          "indexed": true,
          "internalType": "uint256",
          "name": "_tokenId",
          "type": "uint256"
        }
      ],
      "name": "Transfer",
      "type": "event"
    },
    {
      "inputs": [
        {
          "internalType": "address",
          "name": "_to",
          "type": "address"
        },
        {
          "internalType": "uint256",
          "name": "tokenId",
          "type": "uint256"
        }
      ],
      "name": "approve",
      "outputs": [],
      "stateMutability": "nonpayable",
      "type": "function"
    },
    {
      "inputs": [
        {
          "internalType": "address",
          "name": "_owner",
          "type": "address"
        }
      ],
      "name": "balanceOf",
      "outputs": [
        {
          "internalType": "uint256",
          "name": "",
          "type": "uint256"
        }
      ],
      "stateMutability": "view",
      "type": "function"
    },
    {
      "inputs": [],
      "name": "name",
      "outputs": [
        {
          "internalType": "string",
          "name": "",
          "type": "string"
        }
      ],
      "stateMutability": "view",
      "type": "function"
    },
    {
      "inputs": [
        {
          "internalType": "uint256",
          "name": "_tokenId",
          "type": "uint256"
        }
      ],
      "name": "ownerOf",
      "outputs": [
        {
          "internalType": "address",
          "name": "",
          "type": "address"
        }
      ],
      "stateMutability": "view",
      "type": "function"
    },
    {
      "inputs": [
        {
          "internalType": "bytes4",
          "name": "interfaceID",
          "type": "bytes4"
        }
      ],
      "name": "supportsInterface",
      "outputs": [
        {
          "internalType": "bool",
          "name": "",
          "type": "bool"
        }
      ],
      "stateMutability": "view",
      "type": "function"
    },
    {
      "inputs": [],
      "name": "symbol",
      "outputs": [
        {
          "internalType": "string",
          "name": "",
          "type": "string"
        }
      ],
      "stateMutability": "view",
      "type": "function"
    },
    {
      "inputs": [
        {
          "internalType": "uint256",
          "name": "index",
          "type": "uint256"
        }
      ],
      "name": "tokenByIndex",
      "outputs": [
        {
          "internalType": "uint256",
          "name": "",
          "type": "uint256"
        }
      ],
      "stateMutability": "view",
      "type": "function"
    },
    {
      "inputs": [
        {
          "internalType": "address",
          "name": "owner",
          "type": "address"
        },
        {
          "internalType": "uint256",
          "name": "index",
          "type": "uint256"
        }
      ],
      "name": "tokenOfOwnerByIndex",
      "outputs": [
        {
          "internalType": "uint256",
          "name": "",
          "type": "uint256"
        }
      ],
      "stateMutability": "view",
      "type": "function"
    },
    {
      "inputs": [],
      "name": "totalSupply",
      "outputs": [
        {
          "internalType": "uint256",
          "name": "",
          "type": "uint256"
        }
      ],
      "stateMutability": "view",
      "type": "function"
    },
    {
      "inputs": [
        {
          "internalType": "address",
          "name": "_from",
          "type": "address"
        },
        {
          "internalType": "address",
          "name": "_to",
          "type": "address"
        },
        {
          "internalType": "uint256",
          "name": "_tokenId",
          "type": "uint256"
        }
      ],
      "name": "transferFrom",
      "outputs": [],
      "stateMutability": "nonpayable",
      "type": "function"
    }
  ],
  "bytecode": "0x60806040523480156200001157600080fd5b5060405162001d8c38038062001d8c83398181016040528101906200003791906200043f565b81816200006a7f01ffc9a7a5cef8baa21ed3c5c0d7e23accb804b619e9333b597f47a0d84076e2620001d560201b60201c565b620000bd7f5d096aa3b3ac4ac71916b78efb17f60e4a75a3e22b14d8653f56c5b1ead0b6a17f7feaf19471f34a12a7eaf32d5f3090aa2260ea8624dc8a138e74e0bf0f62307618620001d560201b60201c565b8160019081620000ce91906200070f565b508060029081620000e091906200070f565b505050620001587f22c82707ba960a14c7592ffb6b8cfaa073fed0048a84cc7fa41f6b5bd8e7f2e47f3a6eb71757dfc6e784c1459d26270140c2c147d95ca985c80026fc5301c3eca17f8a7e378434598edc36d108689a030cbc9d7d465de4f74c71bae1028eed6a881b1818620001d560201b60201c565b620001cd7f8230223f691b981717299fae9549350a0d894555723531f02108b1f522c1a7977f6da5e1284143cdd2d15038a59bde3be031250f00291d64494c12d967b3a4e0c37ffba0e50ac91627b677e5a25655c09db425329aec38d49a52472007cef1f269311818620001d560201b60201c565b505062000879565b63ffffffff60e01b817bffffffffffffffffffffffffffffffffffffffffffffffffffffffff19160362000240576040517f08c379a0000000000000000000000000000000000000000000000000000000008152600401620002379062000857565b60405180910390fd5b6001600080837bffffffffffffffffffffffffffffffffffffffffffffffffffffffff19167bffffffffffffffffffffffffffffffffffffffffffffffffffffffff1916815260200190815260200160002060006101000a81548160ff02191690831515021790555050565b6000604051905090565b600080fd5b600080fd5b600080fd5b600080fd5b6000601f19601f8301169050919050565b7f4e487b7100000000000000000000000000000000000000000000000000000000600052604160045260246000fd5b6200031582620002ca565b810181811067ffffffffffffffff82111715620003375762000336620002db565b5b80604052505050565b60006200034c620002ac565b90506200035a82826200030a565b919050565b600067ffffffffffffffff8211156200037d576200037c620002db565b5b6200038882620002ca565b9050602081019050919050565b60005b83811015620003b557808201518184015260208101905062000398565b60008484015250505050565b6000620003d8620003d2846200035f565b62000340565b905082815260208101848484011115620003f757620003f6620002c5565b5b6200040484828562000395565b509392505050565b600082601f830112620004245762000423620002c0565b5b815162000436848260208601620003c1565b91505092915050565b60008060408385031215620004595762000458620002b6565b5b600083015167ffffffffffffffff8111156200047a5762000479620002bb565b5b62000488858286016200040c565b925050602083015167ffffffffffffffff811115620004ac57620004ab620002bb565b5b620004ba858286016200040c565b9150509250929050565b600081519050919050565b7f4e487b7100000000000000000000000000000000000000000000000000000000600052602260045260246000fd5b600060028204905060018216806200051757607f821691505b6020821081036200052d576200052c620004cf565b5b50919050565b60008190508160005260206000209050919050565b60006020601f8301049050919050565b600082821b905092915050565b600060088302620005977fffffffffffffffffffffffffffffffffffffffffffffffffffffffffffffffff8262000558565b620005a3868362000558565b95508019841693508086168417925050509392505050565b6000819050919050565b6000819050919050565b6000620005f0620005ea620005e484620005bb565b620005c5565b620005bb565b9050919050565b6000819050919050565b6200060c83620005cf565b620006246200061b82620005f7565b84845462000565565b825550505050565b600090565b6200063b6200062c565b6200064881848462000601565b505050565b5b8181101562000670576200066460008262000631565b6001810190506200064e565b5050565b601f821115620006bf57620006898162000533565b620006948462000548565b81016020851015620006a4578190505b620006bc620006b38562000548565b8301826200064d565b50505b505050565b600082821c905092915050565b6000620006e460001984600802620006c4565b1980831691505092915050565b6000620006ff8383620006d1565b9150826002028217905092915050565b6200071a82620004c4565b67ffffffffffffffff811115620007365762000735620002db565b5b620007428254620004fe565b6200074f82828562000674565b600060209050601f83116001811462000787576000841562000772578287015190505b6200077e8582620006f1565b865550620007ee565b601f198416620007978662000533565b60005b82811015620007c1578489015182556001820191506020850194506020810190506200079a565b86831015620007e15784890151620007dd601f891682620006d1565b8355505b6001600288020188555050505b505050505050565b600082825260208201905092915050565b7f696e76616c696420696e74657266616365207265717565737400000000000000600082015250565b60006200083f601983620007f6565b91506200084c8262000807565b602082019050919050565b60006020820190508181036000830152620008728162000830565b9050919050565b61150380620008896000396000f3fe608060405234801561001057600080fd5b506004361061009e5760003560e01c80632f745c59116100665780632f745c59146101475780634f6ccce7146101775780636352211e146101a757806370a08231146101d757806395d89b41146102075761009e565b806301ffc9a7146100a357806306fdde03146100d3578063095ea7b3146100f157806318160ddd1461010d57806323b872dd1461012b575b600080fd5b6100bd60048036038101906100b89190610c39565b610225565b6040516100ca9190610c81565b60405180910390f35b6100db61028c565b6040516100e89190610d2c565b60405180910390f35b61010b60048036038101906101069190610de2565b61031e565b005b6101156104b9565b6040516101229190610e31565b60405180910390f35b61014560048036038101906101409190610e4c565b6104c6565b005b610161600480360381019061015c9190610de2565b6104e9565b60405161016e9190610e31565b60405180910390f35b610191600480360381019061018c9190610e9f565b610599565b60405161019e9190610e31565b60405180910390f35b6101c160048036038101906101bc9190610e9f565b61060a565b6040516101ce9190610edb565b60405180910390f35b6101f160048036038101906101ec9190610ef6565b6106bb565b6040516101fe9190610e31565b60405180910390f35b61020f610779565b60405161021c9190610d2c565b60405180910390f35b6000806000837bffffffffffffffffffffffffffffffffffffffffffffffffffffffff19167bffffffffffffffffffffffffffffffffffffffffffffffffffffffff1916815260200190815260200160002060009054906101000a900460ff169050919050565b60606001805461029b90610f52565b80601f01602080910402602001604051908101604052809291908181526020018280546102c790610f52565b80156103145780601f106102e957610100808354040283529160200191610314565b820191906000526020600020905b8154815290600101906020018083116102f757829003601f168201915b5050505050905090565b60006103298261060a565b90508073ffffffffffffffffffffffffffffffffffffffff168373ffffffffffffffffffffffffffffffffffffffff1603610399576040517f08c379a000000000000000000000000000000000000000000000000000000000815260040161039090610ff5565b60405180910390fd5b8073ffffffffffffffffffffffffffffffffffffffff163373ffffffffffffffffffffffffffffffffffffffff1614610407576040517f08c379a00000000000000000000000000000000000000000000000000000000081526004016103fe90611061565b60405180910390fd5b826005600084815260200190815260200160002060006101000a81548173ffffffffffffffffffffffffffffffffffffffff021916908373ffffffffffffffffffffffffffffffffffffffff160217905550818373ffffffffffffffffffffffffffffffffffffffff168273ffffffffffffffffffffffffffffffffffffffff167f8c5be1e5ebec7d5bd14f71427d1e84f3dd0314c0f7b2291e5b200ac8c7c3b92560405160405180910390a4505050565b6000600680549050905090565b6104d0338261080b565b6104d957600080fd5b6104e483838361089a565b505050565b60006104f4836106bb565b8210610535576040517f08c379a000000000000000000000000000000000000000000000000000000000815260040161052c906110cd565b60405180910390fd5b600860008473ffffffffffffffffffffffffffffffffffffffff1673ffffffffffffffffffffffffffffffffffffffff1681526020019081526020016000208281548110610586576105856110ed565b5b9060005260206000200154905092915050565b60006105a36104b9565b82106105e4576040517f08c379a00000000000000000000000000000000000000000000000000000000081526004016105db90611168565b60405180910390fd5b600682815481106105f8576105f76110ed565b5b90600052602060002001549050919050565b6000806003600084815260200190815260200160002060009054906101000a900473ffffffffffffffffffffffffffffffffffffffff169050600073ffffffffffffffffffffffffffffffffffffffff168173ffffffffffffffffffffffffffffffffffffffff16036106b2576040517f08c379a00000000000000000000000000000000000000000000000000000000081526004016106a9906111fa565b60405180910390fd5b80915050919050565b60008073ffffffffffffffffffffffffffffffffffffffff168273ffffffffffffffffffffffffffffffffffffffff160361072b576040517f08c379a000000000000000000000000000000000000000000000000000000000815260040161072290611266565b60405180910390fd5b610772600460008473ffffffffffffffffffffffffffffffffffffffff1673ffffffffffffffffffffffffffffffffffffffff168152602001908152602001600020610abb565b9050919050565b60606002805461078890610f52565b80601f01602080910402602001604051908101604052809291908181526020018280546107b490610f52565b80156108015780601f106107d657610100808354040283529160200191610801565b820191906000526020600020905b8154815290600101906020018083116107e457829003601f168201915b5050505050905090565b600061081682610ac9565b610855576040517f08c379a000000000000000000000000000000000000000000000000000000000815260040161084c906112d2565b60405180910390fd5b60006108608361060a565b90508073ffffffffffffffffffffffffffffffffffffffff168473ffffffffffffffffffffffffffffffffffffffff161491505092915050565b600073ffffffffffffffffffffffffffffffffffffffff168273ffffffffffffffffffffffffffffffffffffffff1603610909576040517f08c379a00000000000000000000000000000000000000000000000000000000081526004016109009061133e565b60405180910390fd5b8273ffffffffffffffffffffffffffffffffffffffff166109298261060a565b73ffffffffffffffffffffffffffffffffffffffff161461097f576040517f08c379a0000000000000000000000000000000000000000000000000000000008152600401610976906113aa565b60405180910390fd5b600460008473ffffffffffffffffffffffffffffffffffffffff1673ffffffffffffffffffffffffffffffffffffffff168152602001908152602001600020610b3b905050600460008373ffffffffffffffffffffffffffffffffffffffff1673ffffffffffffffffffffffffffffffffffffffff168152602001908152602001600020610b5e905050816003600083815260200190815260200160002060006101000a81548173ffffffffffffffffffffffffffffffffffffffff021916908373ffffffffffffffffffffffffffffffffffffffff160217905550808273ffffffffffffffffffffffffffffffffffffffff168473ffffffffffffffffffffffffffffffffffffffff167fddf252ad1be2c89b69c2b068fc378daa952ba7f163c4a11628f55a4df523b3ef60405160405180910390a4505050565b600081600001549050919050565b6000806003600084815260200190815260200160002060009054906101000a900473ffffffffffffffffffffffffffffffffffffffff169050600073ffffffffffffffffffffffffffffffffffffffff168173ffffffffffffffffffffffffffffffffffffffff161415915050919050565b610b5360018260000154610b7d90919063ffffffff16565b816000018190555050565b6001816000016000828254610b7391906113f9565b9250508190555050565b600082821115610bc2576040517f08c379a0000000000000000000000000000000000000000000000000000000008152600401610bb990611479565b60405180910390fd5b60008284610bd09190611499565b90508091505092915050565b600080fd5b60007fffffffff0000000000000000000000000000000000000000000000000000000082169050919050565b610c1681610be1565b8114610c2157600080fd5b50565b600081359050610c3381610c0d565b92915050565b600060208284031215610c4f57610c4e610bdc565b5b6000610c5d84828501610c24565b91505092915050565b60008115159050919050565b610c7b81610c66565b82525050565b6000602082019050610c966000830184610c72565b92915050565b600081519050919050565b600082825260208201905092915050565b60005b83811015610cd6578082015181840152602081019050610cbb565b60008484015250505050565b6000601f19601f8301169050919050565b6000610cfe82610c9c565b610d088185610ca7565b9350610d18818560208601610cb8565b610d2181610ce2565b840191505092915050565b60006020820190508181036000830152610d468184610cf3565b905092915050565b600073ffffffffffffffffffffffffffffffffffffffff82169050919050565b6000610d7982610d4e565b9050919050565b610d8981610d6e565b8114610d9457600080fd5b50565b600081359050610da681610d80565b92915050565b6000819050919050565b610dbf81610dac565b8114610dca57600080fd5b50565b600081359050610ddc81610db6565b92915050565b60008060408385031215610df957610df8610bdc565b5b6000610e0785828601610d97565b9250506020610e1885828601610dcd565b9150509250929050565b610e2b81610dac565b82525050565b6000602082019050610e466000830184610e22565b92915050565b600080600060608486031215610e6557610e64610bdc565b5b6000610e7386828701610d97565b9350506020610e8486828701610d97565b9250506040610e9586828701610dcd565b9150509250925092565b600060208284031215610eb557610eb4610bdc565b5b6000610ec384828501610dcd565b91505092915050565b610ed581610d6e565b82525050565b6000602082019050610ef06000830184610ecc565b92915050565b600060208284031215610f0c57610f0b610bdc565b5b6000610f1a84828501610d97565b91505092915050565b7f4e487b7100000000000000000000000000000000000000000000000000000000600052602260045260246000fd5b60006002820490506001821680610f6a57607f821691505b602082108103610f7d57610f7c610f23565b5b50919050565b7f4572726f72202d20617070726f76616c20746f2063757272656e74206f776e6560008201527f7200000000000000000000000000000000000000000000000000000000000000602082015250565b6000610fdf602183610ca7565b9150610fea82610f83565b604082019050919050565b6000602082019050818103600083015261100e81610fd2565b9050919050565b7f63757272656e742063616c6c6572206973206e7420746f6b656e206f776e6572600082015250565b600061104b602083610ca7565b915061105682611015565b602082019050919050565b6000602082019050818103600083015261107a8161103e565b9050919050565b7f6f776e657220696e646578206f7574206f6620626f756e647300000000000000600082015250565b60006110b7601983610ca7565b91506110c282611081565b602082019050919050565b600060208201905081810360008301526110e6816110aa565b9050919050565b7f4e487b7100000000000000000000000000000000000000000000000000000000600052603260045260246000fd5b7f676c6f62616c20696e646578206f7574206f6620626f756e6473000000000000600082015250565b6000611152601a83610ca7565b915061115d8261111c565b602082019050919050565b6000602082019050818103600083015261118181611145565b9050919050565b7f6f776e657220717565727920666f72206e6f6e20657873697374616e74206e6660008201527f7400000000000000000000000000000000000000000000000000000000000000602082015250565b60006111e4602183610ca7565b91506111ef82611188565b604082019050919050565b60006020820190508181036000830152611213816111d7565b9050919050565b7f746f6b656e206e6f6e2065787369747300000000000000000000000000000000600082015250565b6000611250601083610ca7565b915061125b8261121a565b602082019050919050565b6000602082019050818103600083015261127f81611243565b9050919050565b7f746f6b656e20646f6573206e6f74206578697374000000000000000000000000600082015250565b60006112bc601483610ca7565b91506112c782611286565b602082019050919050565b600060208201905081810360008301526112eb816112af565b9050919050565b7f455243373231205472616e7366657220746f207a65726f206164647265737300600082015250565b6000611328601f83610ca7565b9150611333826112f2565b602082019050919050565b600060208201905081810360008301526113578161131b565b9050919050565b7f646f6573206e6f74206f776e2061646472657373200000000000000000000000600082015250565b6000611394601583610ca7565b915061139f8261135e565b602082019050919050565b600060208201905081810360008301526113c381611387565b9050919050565b7f4e487b7100000000000000000000000000000000000000000000000000000000600052601160045260246000fd5b600061140482610dac565b915061140f83610dac565b9250828201905080821115611427576114266113ca565b5b92915050565b7f73616665206d617468207375627472616374696f6e206f766572666c6f770000600082015250565b6000611463601e83610ca7565b915061146e8261142d565b602082019050919050565b6000602082019050818103600083015261149281611456565b9050919050565b60006114a482610dac565b91506114af83610dac565b92508282039050818111156114c7576114c66113ca565b5b9291505056fea26469706673582212204702072ac6eed0397775a10006b0ceb3911a3447815c2819302d69c4aaf73b8164736f6c63430008110033",
  "immutableReferences": {},
  "source": "//SPDX-License-Identifier: MIT\r\n\r\npragma solidity ^0.8.0;\r\n\r\nimport './ERC721Metadata.sol';\r\nimport './ERC721Enumerable.sol';\r\n\r\ncontract ERC721Connector is ERC721Metadata, ERC721Enumerable {\r\n     constructor(string memory name, string memory symbol) ERC721Metadata(name, symbol) {\r\n\r\n     }\r\n}",
  "sourcePath": "C:\\Users\\pc\\Desktop\\nftPlatform\\src\\contracts\\ERC721Connector.sol",
  "compiler": {
    "name": "solc",
    "version": "0.8.17+commit.8df45f5f.Emscripten.clang"
  },
  "schemaVersion": "3.4.11",
  "updatedAt": "2022-12-21T22:19:26.389Z",
  "devdoc": {
    "kind": "dev",
    "methods": {
      "supportsInterface(bytes4)": {
        "details": "Interface identification is specified in ERC-165. This function  uses less than 30,000 gas.",
        "params": {
          "interfaceID": "The interface identifier, as specified in ERC-165"
        },
        "returns": {
          "_0": "`true` if the contract implements `interfaceID` and  `interfaceID` is not 0xffffffff, `false` otherwise"
        }
      },
      "transferFrom(address,address,uint256)": {
        "details": "Throws unless `msg.sender` is the current owner, an authorized  operator, or the approved address for this NFT. Throws if `_from` is  not the current owner. Throws if `_to` is the zero address. Throws if  `_tokenId` is not a valid NFT.",
        "params": {
          "_from": "The current owner of the NFT",
          "_to": "The new owner",
          "_tokenId": "The NFT to transfer"
        }
      }
    },
    "version": 1
  },
  "userdoc": {
    "kind": "user",
    "methods": {
      "supportsInterface(bytes4)": {
        "notice": "Query if a contract implements an interface"
      },
      "transferFrom(address,address,uint256)": {
        "notice": "Transfer ownership of an NFT -- THE CALLER IS RESPONSIBLE  TO CONFIRM THAT `_to` IS CAPABLE OF RECEIVING NFTS OR ELSE  THEY MAY BE PERMANENTLY LOST"
      }
    },
    "version": 1
  }
}