{
  "contractName": "ERC721",
  "abi": [
    {
      "anonymous": false,
      "inputs": [
        {
          "indexed": true,
          "internalType": "address",
          "name": "owner",
          "type": "address"
        },
        {
          "indexed": true,
          "internalType": "address",
          "name": "approved",
          "type": "address"
        },
        {
          "indexed": true,
          "internalType": "uint256",
          "name": "tokenId",
          "type": "uint256"
        }
      ],
      "name": "Approval",
      "type": "event"
    },
    {
      "anonymous": false,
      "inputs": [
        {
          "indexed": true,
          "internalType": "address",
          "name": "from",
          "type": "address"
        },
        {
          "indexed": true,
          "internalType": "address",
          "name": "to",
          "type": "address"
        },
        {
          "indexed": true,
          "internalType": "uint256",
          "name": "tokenId",
          "type": "uint256"
        }
      ],
      "name": "Transfer",
      "type": "event"
    },
    {
      "inputs": [
        {
          "internalType": "address",
          "name": "_owner",
          "type": "address"
        }
      ],
      "name": "balanceOf",
      "outputs": [
        {
          "internalType": "uint256",
          "name": "",
          "type": "uint256"
        }
      ],
      "stateMutability": "view",
      "type": "function"
    },
    {
      "inputs": [
        {
          "internalType": "uint256",
          "name": "_tokenId",
          "type": "uint256"
        }
      ],
      "name": "ownerOf",
      "outputs": [
        {
          "internalType": "address",
          "name": "",
          "type": "address"
        }
      ],
      "stateMutability": "view",
      "type": "function"
    },
    {
      "inputs": [
        {
          "internalType": "address",
          "name": "_from",
          "type": "address"
        },
        {
          "internalType": "address",
          "name": "_to",
          "type": "address"
        },
        {
          "internalType": "uint256",
          "name": "_tokenId",
          "type": "uint256"
        }
      ],
      "name": "transferFrom",
      "outputs": [],
      "stateMutability": "nonpayable",
      "type": "function"
    },
    {
      "inputs": [
        {
          "internalType": "address",
          "name": "_to",
          "type": "address"
        },
        {
          "internalType": "uint256",
          "name": "tokenId",
          "type": "uint256"
        }
      ],
      "name": "approve",
      "outputs": [],
      "stateMutability": "nonpayable",
      "type": "function"
    }
  ],
  "bytecode": "0x608060405234801561001057600080fd5b50610d48806100206000396000f3fe608060405234801561001057600080fd5b506004361061004c5760003560e01c8063095ea7b31461005157806323b872dd1461006d5780636352211e1461008957806370a08231146100b9575b600080fd5b61006b600480360381019061006691906107e9565b6100e9565b005b61008760048036038101906100829190610829565b610284565b005b6100a3600480360381019061009e919061087c565b6102a7565b6040516100b091906108b8565b60405180910390f35b6100d360048036038101906100ce91906108d3565b610357565b6040516100e0919061090f565b60405180910390f35b60006100f4826102a7565b90508073ffffffffffffffffffffffffffffffffffffffff168373ffffffffffffffffffffffffffffffffffffffff1603610164576040517f08c379a000000000000000000000000000000000000000000000000000000000815260040161015b906109ad565b60405180910390fd5b8073ffffffffffffffffffffffffffffffffffffffff163373ffffffffffffffffffffffffffffffffffffffff16146101d2576040517f08c379a00000000000000000000000000000000000000000000000000000000081526004016101c990610a19565b60405180910390fd5b826002600084815260200190815260200160002060006101000a81548173ffffffffffffffffffffffffffffffffffffffff021916908373ffffffffffffffffffffffffffffffffffffffff160217905550818373ffffffffffffffffffffffffffffffffffffffff168273ffffffffffffffffffffffffffffffffffffffff167f8c5be1e5ebec7d5bd14f71427d1e84f3dd0314c0f7b2291e5b200ac8c7c3b92560405160405180910390a4505050565b61028e338261040e565b61029757600080fd5b6102a283838361049d565b505050565b60008060008084815260200190815260200160002060009054906101000a900473ffffffffffffffffffffffffffffffffffffffff169050600073ffffffffffffffffffffffffffffffffffffffff168173ffffffffffffffffffffffffffffffffffffffff160361034e576040517f08c379a000000000000000000000000000000000000000000000000000000000815260040161034590610aab565b60405180910390fd5b80915050919050565b60008073ffffffffffffffffffffffffffffffffffffffff168273ffffffffffffffffffffffffffffffffffffffff16036103c7576040517f08c379a00000000000000000000000000000000000000000000000000000000081526004016103be90610b17565b60405180910390fd5b600160008373ffffffffffffffffffffffffffffffffffffffff1673ffffffffffffffffffffffffffffffffffffffff168152602001908152602001600020549050919050565b6000610419826106df565b610458576040517f08c379a000000000000000000000000000000000000000000000000000000000815260040161044f90610b83565b60405180910390fd5b6000610463836102a7565b90508073ffffffffffffffffffffffffffffffffffffffff168473ffffffffffffffffffffffffffffffffffffffff161491505092915050565b600073ffffffffffffffffffffffffffffffffffffffff168273ffffffffffffffffffffffffffffffffffffffff160361050c576040517f08c379a000000000000000000000000000000000000000000000000000000000815260040161050390610bef565b60405180910390fd5b8273ffffffffffffffffffffffffffffffffffffffff1661052c826102a7565b73ffffffffffffffffffffffffffffffffffffffff1614610582576040517f08c379a000000000000000000000000000000000000000000000000000000000815260040161057990610c5b565b60405180910390fd5b60018060008573ffffffffffffffffffffffffffffffffffffffff1673ffffffffffffffffffffffffffffffffffffffff16815260200190815260200160002060008282546105d19190610caa565b9250508190555060018060008473ffffffffffffffffffffffffffffffffffffffff1673ffffffffffffffffffffffffffffffffffffffff16815260200190815260200160002060008282546106279190610cde565b925050819055508160008083815260200190815260200160002060006101000a81548173ffffffffffffffffffffffffffffffffffffffff021916908373ffffffffffffffffffffffffffffffffffffffff160217905550808273ffffffffffffffffffffffffffffffffffffffff168473ffffffffffffffffffffffffffffffffffffffff167fddf252ad1be2c89b69c2b068fc378daa952ba7f163c4a11628f55a4df523b3ef60405160405180910390a4505050565b60008060008084815260200190815260200160002060009054906101000a900473ffffffffffffffffffffffffffffffffffffffff169050600073ffffffffffffffffffffffffffffffffffffffff168173ffffffffffffffffffffffffffffffffffffffff161415915050919050565b600080fd5b600073ffffffffffffffffffffffffffffffffffffffff82169050919050565b600061078082610755565b9050919050565b61079081610775565b811461079b57600080fd5b50565b6000813590506107ad81610787565b92915050565b6000819050919050565b6107c6816107b3565b81146107d157600080fd5b50565b6000813590506107e3816107bd565b92915050565b60008060408385031215610800576107ff610750565b5b600061080e8582860161079e565b925050602061081f858286016107d4565b9150509250929050565b60008060006060848603121561084257610841610750565b5b60006108508682870161079e565b93505060206108618682870161079e565b9250506040610872868287016107d4565b9150509250925092565b60006020828403121561089257610891610750565b5b60006108a0848285016107d4565b91505092915050565b6108b281610775565b82525050565b60006020820190506108cd60008301846108a9565b92915050565b6000602082840312156108e9576108e8610750565b5b60006108f78482850161079e565b91505092915050565b610909816107b3565b82525050565b60006020820190506109246000830184610900565b92915050565b600082825260208201905092915050565b7f4572726f72202d20617070726f76616c20746f2063757272656e74206f776e6560008201527f7200000000000000000000000000000000000000000000000000000000000000602082015250565b600061099760218361092a565b91506109a28261093b565b604082019050919050565b600060208201905081810360008301526109c68161098a565b9050919050565b7f63757272656e742063616c6c6572206973206e7420746f6b656e206f776e6572600082015250565b6000610a0360208361092a565b9150610a0e826109cd565b602082019050919050565b60006020820190508181036000830152610a32816109f6565b9050919050565b7f6f776e657220717565727920666f72206e6f6e20657873697374616e74206e6660008201527f7400000000000000000000000000000000000000000000000000000000000000602082015250565b6000610a9560218361092a565b9150610aa082610a39565b604082019050919050565b60006020820190508181036000830152610ac481610a88565b9050919050565b7f746f6b656e206e6f6e2065787369747300000000000000000000000000000000600082015250565b6000610b0160108361092a565b9150610b0c82610acb565b602082019050919050565b60006020820190508181036000830152610b3081610af4565b9050919050565b7f746f6b656e20646f6573206e6f74206578697374000000000000000000000000600082015250565b6000610b6d60148361092a565b9150610b7882610b37565b602082019050919050565b60006020820190508181036000830152610b9c81610b60565b9050919050565b7f455243373231205472616e7366657220746f207a65726f206164647265737300600082015250565b6000610bd9601f8361092a565b9150610be482610ba3565b602082019050919050565b60006020820190508181036000830152610c0881610bcc565b9050919050565b7f646f6573206e6f74206f776e2061646472657373200000000000000000000000600082015250565b6000610c4560158361092a565b9150610c5082610c0f565b602082019050919050565b60006020820190508181036000830152610c7481610c38565b9050919050565b7f4e487b7100000000000000000000000000000000000000000000000000000000600052601160045260246000fd5b6000610cb5826107b3565b9150610cc0836107b3565b9250828203905081811115610cd857610cd7610c7b565b5b92915050565b6000610ce9826107b3565b9150610cf4836107b3565b9250828201905080821115610d0c57610d0b610c7b565b5b9291505056fea2646970667358221220974546b3160bcad80f972c46ad4a338d0edf42d0ced9fabec78557c56466939564736f6c63430008110033",
  "immutableReferences": {},
  "source": "//SPDX-License-Identifier: MIT\r\n\r\npragma solidity ^0.8.0;\r\n\r\n\r\ncontract ERC721 {\r\n\r\n    event Transfer(\r\n        address indexed from, \r\n        address indexed to, \r\n        uint256 indexed  tokenId);\r\n\r\n        event Approval(\r\n            address indexed owner,\r\n            address indexed approved,\r\n            uint256 indexed tokenId\r\n        );\r\n     \r\n    mapping(uint256 => address ) private _tokenOwner;\r\n    mapping(address => uint256) private _OwnedTokensCount;\r\n    mapping(uint256 => address)  private _tokenApprovals;\r\n    \r\n\r\n    function balanceOf(address _owner) public view returns(uint256) {\r\n      require(_owner != address(0), 'token non exsits');\r\n      return _OwnedTokensCount[_owner];\r\n    }\r\n\r\n    function ownerOf(uint256 _tokenId) public view returns (address) {\r\n        address owner = _tokenOwner[_tokenId];\r\n        require(owner != address(0), 'owner query for non exsistant nft');\r\n        return owner;\r\n    }\r\n    function _exists(uint256 tokenId) internal view returns(bool) {\r\n        address owner = _tokenOwner[tokenId];\r\n        return owner != address(0);\r\n    }\r\n  \r\n    function _mint( address to, uint256 tokenId) internal virtual{\r\n        require(to != address(0), \"ERC721 : minting to zero address\");\r\n        require(!_exists(tokenId), \"ERC721 token already exists\");\r\n          _tokenOwner[tokenId] = to;\r\n          _OwnedTokensCount[to] += 1;\r\n\r\n          emit Transfer(address(0), to, tokenId);\r\n       }\r\n    \r\n\r\n    function _transferFrom(address _from, address _to, uint256 _tokenId) internal {\r\n        require (_to != address(0), 'ERC721 Transfer to zero address');\r\n        require(ownerOf(_tokenId) == _from, \"does not own address \");\r\n        _OwnedTokensCount[_from] -= 1;\r\n        _OwnedTokensCount[_to] += 1;\r\n        _tokenOwner[_tokenId] = _to;\r\n        emit Transfer(_from, _to, _tokenId);\r\n        }\r\n\r\n        function transferFrom(address _from, address _to, uint256 _tokenId)public {\r\n           require(isApprovedOrOwner(msg.sender, _tokenId));\r\n           _transferFrom(_from, _to, _tokenId);\r\n        }\r\n\r\n        function approve(address _to, uint tokenId) public {\r\n            address owner = ownerOf(tokenId);\r\n            require(_to != owner, 'Error - approval to current owner');\r\n            require(msg.sender == owner, 'current caller is nt token owner');\r\n            _tokenApprovals[tokenId] = _to;\r\n            emit Approval(owner, _to, tokenId);\r\n\r\n        }\r\n     \r\n       function isApprovedOrOwner(address spender, uint256 tokenId) internal view returns(bool) {\r\n          require(_exists(tokenId), 'token does not exist');\r\n          address owner = ownerOf(tokenId);\r\n          return(spender == owner);\r\n        \r\n       }\r\n        \r\n   }\r\n  ",
  "sourcePath": "C:\\Users\\pc\\desktop\\nftPlatform\\src\\contracts\\ERC721.sol",
  "compiler": {
    "name": "solc",
    "version": "0.8.17+commit.8df45f5f.Emscripten.clang"
  },
  "schemaVersion": "3.4.11",
  "updatedAt": "2022-11-28T05:27:38.266Z",
  "devdoc": {
    "kind": "dev",
    "methods": {},
    "version": 1
  },
  "userdoc": {
    "kind": "user",
    "methods": {},
    "version": 1
  }
}