{
  "contractName": "KryptoBird",
  "abi": [
    {
      "inputs": [],
      "stateMutability": "nonpayable",
      "type": "constructor"
    },
    {
      "anonymous": false,
      "inputs": [
        {
          "indexed": true,
          "internalType": "address",
          "name": "from",
          "type": "address"
        },
        {
          "indexed": true,
          "internalType": "address",
          "name": "to",
          "type": "address"
        },
        {
          "indexed": true,
          "internalType": "uint256",
          "name": "tokenId",
          "type": "uint256"
        }
      ],
      "name": "Transfer",
      "type": "event"
    },
    {
      "inputs": [
        {
          "internalType": "address",
          "name": "_owner",
          "type": "address"
        }
      ],
      "name": "balanceOf",
      "outputs": [
        {
          "internalType": "uint256",
          "name": "",
          "type": "uint256"
        }
      ],
      "stateMutability": "view",
      "type": "function",
      "constant": true
    },
    {
      "inputs": [
        {
          "internalType": "uint256",
          "name": "",
          "type": "uint256"
        }
      ],
      "name": "kryptoBirdz",
      "outputs": [
        {
          "internalType": "string",
          "name": "",
          "type": "string"
        }
      ],
      "stateMutability": "view",
      "type": "function",
      "constant": true
    },
    {
      "inputs": [],
      "name": "name",
      "outputs": [
        {
          "internalType": "string",
          "name": "",
          "type": "string"
        }
      ],
      "stateMutability": "view",
      "type": "function",
      "constant": true
    },
    {
      "inputs": [
        {
          "internalType": "uint256",
          "name": "_tokenId",
          "type": "uint256"
        }
      ],
      "name": "ownerOf",
      "outputs": [
        {
          "internalType": "address",
          "name": "",
          "type": "address"
        }
      ],
      "stateMutability": "view",
      "type": "function",
      "constant": true
    },
    {
      "inputs": [],
      "name": "symbol",
      "outputs": [
        {
          "internalType": "string",
          "name": "",
          "type": "string"
        }
      ],
      "stateMutability": "view",
      "type": "function",
      "constant": true
    },
    {
      "inputs": [
        {
          "internalType": "uint256",
          "name": "index",
          "type": "uint256"
        }
      ],
      "name": "tokenByIndex",
      "outputs": [
        {
          "internalType": "uint256",
          "name": "",
          "type": "uint256"
        }
      ],
      "stateMutability": "view",
      "type": "function",
      "constant": true
    },
    {
      "inputs": [
        {
          "internalType": "address",
          "name": "owner",
          "type": "address"
        },
        {
          "internalType": "uint256",
          "name": "index",
          "type": "uint256"
        }
      ],
      "name": "tokenOfOwnerByIndex",
      "outputs": [
        {
          "internalType": "uint256",
          "name": "",
          "type": "uint256"
        }
      ],
      "stateMutability": "view",
      "type": "function",
      "constant": true
    },
    {
      "inputs": [],
      "name": "totalSupply",
      "outputs": [
        {
          "internalType": "uint256",
          "name": "",
          "type": "uint256"
        }
      ],
      "stateMutability": "view",
      "type": "function",
      "constant": true
    },
    {
      "inputs": [
        {
          "internalType": "address",
          "name": "_from",
          "type": "address"
        },
        {
          "internalType": "address",
          "name": "_to",
          "type": "address"
        },
        {
          "internalType": "uint256",
          "name": "_tokenId",
          "type": "uint256"
        }
      ],
      "name": "transferFrom",
      "outputs": [],
      "stateMutability": "nonpayable",
      "type": "function"
    },
    {
      "inputs": [
        {
          "internalType": "string",
          "name": "_kryptoBird",
          "type": "string"
        }
      ],
      "name": "mint",
      "outputs": [],
      "stateMutability": "nonpayable",
      "type": "function"
    }
  ],
  "bytecode": "0x60806040523480156200001157600080fd5b506040518060400160405280600a81526020017f4b727970746f42697264000000000000000000000000000000000000000000008152506040518060400160405280600681526020017f4b424952445a00000000000000000000000000000000000000000000000000008152508181816000908162000091919062000328565b508060019081620000a3919062000328565b50505050506200040f565b600081519050919050565b7f4e487b7100000000000000000000000000000000000000000000000000000000600052604160045260246000fd5b7f4e487b7100000000000000000000000000000000000000000000000000000000600052602260045260246000fd5b600060028204905060018216806200013057607f821691505b602082108103620001465762000145620000e8565b5b50919050565b60008190508160005260206000209050919050565b60006020601f8301049050919050565b600082821b905092915050565b600060088302620001b07fffffffffffffffffffffffffffffffffffffffffffffffffffffffffffffffff8262000171565b620001bc868362000171565b95508019841693508086168417925050509392505050565b6000819050919050565b6000819050919050565b60006200020962000203620001fd84620001d4565b620001de565b620001d4565b9050919050565b6000819050919050565b6200022583620001e8565b6200023d620002348262000210565b8484546200017e565b825550505050565b600090565b6200025462000245565b620002618184846200021a565b505050565b5b8181101562000289576200027d6000826200024a565b60018101905062000267565b5050565b601f821115620002d857620002a2816200014c565b620002ad8462000161565b81016020851015620002bd578190505b620002d5620002cc8562000161565b83018262000266565b50505b505050565b600082821c905092915050565b6000620002fd60001984600802620002dd565b1980831691505092915050565b6000620003188383620002ea565b9150826002028217905092915050565b6200033382620000ae565b67ffffffffffffffff8111156200034f576200034e620000b9565b5b6200035b825462000117565b620003688282856200028d565b600060209050601f831160018114620003a057600084156200038b578287015190505b6200039785826200030a565b86555062000407565b601f198416620003b0866200014c565b60005b82811015620003da57848901518255600182019150602085019450602081019050620003b3565b86831015620003fa5784890151620003f6601f891682620002ea565b8355505b6001600288020188555050505b505050505050565b611975806200041f6000396000f3fe608060405234801561001057600080fd5b506004361061009e5760003560e01c80636352211e116100665780636352211e1461015b57806370a082311461018b57806393ab6e56146101bb57806395d89b41146101eb578063d85d3d27146102095761009e565b806306fdde03146100a357806318160ddd146100c157806323b872dd146100df5780632f745c59146100fb5780634f6ccce71461012b575b600080fd5b6100ab610225565b6040516100b89190610dcd565b60405180910390f35b6100c96102b7565b6040516100d69190610e08565b60405180910390f35b6100f960048036038101906100f49190610ec1565b6102c4565b005b61011560048036038101906101109190610f14565b6102d4565b6040516101229190610e08565b60405180910390f35b61014560048036038101906101409190610f54565b610384565b6040516101529190610e08565b60405180910390f35b61017560048036038101906101709190610f54565b6103f5565b6040516101829190610f90565b60405180910390f35b6101a560048036038101906101a09190610fab565b6104a6565b6040516101b29190610e08565b60405180910390f35b6101d560048036038101906101d09190610f54565b61055d565b6040516101e29190610dcd565b60405180910390f35b6101f3610609565b6040516102009190610dcd565b60405180910390f35b610223600480360381019061021e919061110d565b61069b565b005b60606000805461023490611185565b80601f016020809104026020016040519081016040528092919081815260200182805461026090611185565b80156102ad5780601f10610282576101008083540402835291602001916102ad565b820191906000526020600020905b81548152906001019060200180831161029057829003601f168201915b5050505050905090565b6000600580549050905090565b6102cf838383610797565b505050565b60006102df836104a6565b8210610320576040517f08c379a000000000000000000000000000000000000000000000000000000000815260040161031790611202565b60405180910390fd5b600760008473ffffffffffffffffffffffffffffffffffffffff1673ffffffffffffffffffffffffffffffffffffffff168152602001908152602001600020828154811061037157610370611222565b5b9060005260206000200154905092915050565b600061038e6102b7565b82106103cf576040517f08c379a00000000000000000000000000000000000000000000000000000000081526004016103c69061129d565b60405180910390fd5b600582815481106103e3576103e2611222565b5b90600052602060002001549050919050565b6000806002600084815260200190815260200160002060009054906101000a900473ffffffffffffffffffffffffffffffffffffffff169050600073ffffffffffffffffffffffffffffffffffffffff168173ffffffffffffffffffffffffffffffffffffffff160361049d576040517f08c379a00000000000000000000000000000000000000000000000000000000081526004016104949061132f565b60405180910390fd5b80915050919050565b60008073ffffffffffffffffffffffffffffffffffffffff168273ffffffffffffffffffffffffffffffffffffffff1603610516576040517f08c379a000000000000000000000000000000000000000000000000000000000815260040161050d9061139b565b60405180910390fd5b600360008373ffffffffffffffffffffffffffffffffffffffff1673ffffffffffffffffffffffffffffffffffffffff168152602001908152602001600020549050919050565b6009818154811061056d57600080fd5b90600052602060002001600091509050805461058890611185565b80601f01602080910402602001604051908101604052809291908181526020018280546105b490611185565b80156106015780601f106105d657610100808354040283529160200191610601565b820191906000526020600020905b8154815290600101906020018083116105e457829003601f168201915b505050505081565b60606001805461061890611185565b80601f016020809104026020016040519081016040528092919081815260200182805461064490611185565b80156106915780601f1061066657610100808354040283529160200191610691565b820191906000526020600020905b81548152906001019060200180831161067457829003601f168201915b5050505050905090565b600a816040516106ab91906113f7565b908152602001604051809103902060009054906101000a900460ff1615610707576040517f08c379a00000000000000000000000000000000000000000000000000000000081526004016106fe9061145a565b60405180910390fd5b60098190806001815401808255809150506001900390600052602060002001600090919091909150908161073b9190611626565b50600060016009805490506107509190611727565b905061075c33826109dc565b6001600a8360405161076e91906113f7565b908152602001604051809103902060006101000a81548160ff0219169083151502179055505050565b600073ffffffffffffffffffffffffffffffffffffffff168273ffffffffffffffffffffffffffffffffffffffff1603610806576040517f08c379a00000000000000000000000000000000000000000000000000000000081526004016107fd906117a7565b60405180910390fd5b8273ffffffffffffffffffffffffffffffffffffffff16610826826103f5565b73ffffffffffffffffffffffffffffffffffffffff161461087c576040517f08c379a000000000000000000000000000000000000000000000000000000000815260040161087390611813565b60405180910390fd5b6001600360008573ffffffffffffffffffffffffffffffffffffffff1673ffffffffffffffffffffffffffffffffffffffff16815260200190815260200160002060008282546108cc9190611727565b925050819055506001600360008473ffffffffffffffffffffffffffffffffffffffff1673ffffffffffffffffffffffffffffffffffffffff16815260200190815260200160002060008282546109239190611833565b92505081905550816002600083815260200190815260200160002060006101000a81548173ffffffffffffffffffffffffffffffffffffffff021916908373ffffffffffffffffffffffffffffffffffffffff160217905550808273ffffffffffffffffffffffffffffffffffffffff168473ffffffffffffffffffffffffffffffffffffffff167fddf252ad1be2c89b69c2b068fc378daa952ba7f163c4a11628f55a4df523b3ef60405160405180910390a4505050565b6109e682826109fd565b6109ef81610bbe565b6109f98282610c07565b5050565b600073ffffffffffffffffffffffffffffffffffffffff168273ffffffffffffffffffffffffffffffffffffffff1603610a6c576040517f08c379a0000000000000000000000000000000000000000000000000000000008152600401610a63906118b3565b60405180910390fd5b610a7581610ccb565b15610ab5576040517f08c379a0000000000000000000000000000000000000000000000000000000008152600401610aac9061191f565b60405180910390fd5b816002600083815260200190815260200160002060006101000a81548173ffffffffffffffffffffffffffffffffffffffff021916908373ffffffffffffffffffffffffffffffffffffffff1602179055506001600360008473ffffffffffffffffffffffffffffffffffffffff1673ffffffffffffffffffffffffffffffffffffffff1681526020019081526020016000206000828254610b579190611833565b92505081905550808273ffffffffffffffffffffffffffffffffffffffff16600073ffffffffffffffffffffffffffffffffffffffff167fddf252ad1be2c89b69c2b068fc378daa952ba7f163c4a11628f55a4df523b3ef60405160405180910390a45050565b6005805490506006600083815260200190815260200160002081905550600581908060018154018082558091505060019003906000526020600020016000909190919091505550565b600760008373ffffffffffffffffffffffffffffffffffffffff1673ffffffffffffffffffffffffffffffffffffffff168152602001908152602001600020805490506008600083815260200190815260200160002081905550600760008373ffffffffffffffffffffffffffffffffffffffff1673ffffffffffffffffffffffffffffffffffffffff1681526020019081526020016000208190806001815401808255809150506001900390600052602060002001600090919091909150555050565b6000806002600084815260200190815260200160002060009054906101000a900473ffffffffffffffffffffffffffffffffffffffff169050600073ffffffffffffffffffffffffffffffffffffffff168173ffffffffffffffffffffffffffffffffffffffff161415915050919050565b600081519050919050565b600082825260208201905092915050565b60005b83811015610d77578082015181840152602081019050610d5c565b60008484015250505050565b6000601f19601f8301169050919050565b6000610d9f82610d3d565b610da98185610d48565b9350610db9818560208601610d59565b610dc281610d83565b840191505092915050565b60006020820190508181036000830152610de78184610d94565b905092915050565b6000819050919050565b610e0281610def565b82525050565b6000602082019050610e1d6000830184610df9565b92915050565b6000604051905090565b600080fd5b600080fd5b600073ffffffffffffffffffffffffffffffffffffffff82169050919050565b6000610e6282610e37565b9050919050565b610e7281610e57565b8114610e7d57600080fd5b50565b600081359050610e8f81610e69565b92915050565b610e9e81610def565b8114610ea957600080fd5b50565b600081359050610ebb81610e95565b92915050565b600080600060608486031215610eda57610ed9610e2d565b5b6000610ee886828701610e80565b9350506020610ef986828701610e80565b9250506040610f0a86828701610eac565b9150509250925092565b60008060408385031215610f2b57610f2a610e2d565b5b6000610f3985828601610e80565b9250506020610f4a85828601610eac565b9150509250929050565b600060208284031215610f6a57610f69610e2d565b5b6000610f7884828501610eac565b91505092915050565b610f8a81610e57565b82525050565b6000602082019050610fa56000830184610f81565b92915050565b600060208284031215610fc157610fc0610e2d565b5b6000610fcf84828501610e80565b91505092915050565b600080fd5b600080fd5b7f4e487b7100000000000000000000000000000000000000000000000000000000600052604160045260246000fd5b61101a82610d83565b810181811067ffffffffffffffff8211171561103957611038610fe2565b5b80604052505050565b600061104c610e23565b90506110588282611011565b919050565b600067ffffffffffffffff82111561107857611077610fe2565b5b61108182610d83565b9050602081019050919050565b82818337600083830152505050565b60006110b06110ab8461105d565b611042565b9050828152602081018484840111156110cc576110cb610fdd565b5b6110d784828561108e565b509392505050565b600082601f8301126110f4576110f3610fd8565b5b813561110484826020860161109d565b91505092915050565b60006020828403121561112357611122610e2d565b5b600082013567ffffffffffffffff81111561114157611140610e32565b5b61114d848285016110df565b91505092915050565b7f4e487b7100000000000000000000000000000000000000000000000000000000600052602260045260246000fd5b6000600282049050600182168061119d57607f821691505b6020821081036111b0576111af611156565b5b50919050565b7f6f776e657220696e646578206f7574206f6620626f756e647300000000000000600082015250565b60006111ec601983610d48565b91506111f7826111b6565b602082019050919050565b6000602082019050818103600083015261121b816111df565b9050919050565b7f4e487b7100000000000000000000000000000000000000000000000000000000600052603260045260246000fd5b7f676c6f62616c20696e646578206f7574206f6620626f756e6473000000000000600082015250565b6000611287601a83610d48565b915061129282611251565b602082019050919050565b600060208201905081810360008301526112b68161127a565b9050919050565b7f6f776e657220717565727920666f72206e6f6e20657873697374616e74206e6660008201527f7400000000000000000000000000000000000000000000000000000000000000602082015250565b6000611319602183610d48565b9150611324826112bd565b604082019050919050565b600060208201905081810360008301526113488161130c565b9050919050565b7f746f6b656e206e6f6e2065787369747300000000000000000000000000000000600082015250565b6000611385601083610d48565b91506113908261134f565b602082019050919050565b600060208201905081810360008301526113b481611378565b9050919050565b600081905092915050565b60006113d182610d3d565b6113db81856113bb565b93506113eb818560208601610d59565b80840191505092915050565b600061140382846113c6565b915081905092915050565b7f6572726f72202d204b727970746f426972642065786973747300000000000000600082015250565b6000611444601983610d48565b915061144f8261140e565b602082019050919050565b6000602082019050818103600083015261147381611437565b9050919050565b60008190508160005260206000209050919050565b60006020601f8301049050919050565b600082821b905092915050565b6000600883026114dc7fffffffffffffffffffffffffffffffffffffffffffffffffffffffffffffffff8261149f565b6114e6868361149f565b95508019841693508086168417925050509392505050565b6000819050919050565b600061152361151e61151984610def565b6114fe565b610def565b9050919050565b6000819050919050565b61153d83611508565b6115516115498261152a565b8484546114ac565b825550505050565b600090565b611566611559565b611571818484611534565b505050565b5b818110156115955761158a60008261155e565b600181019050611577565b5050565b601f8211156115da576115ab8161147a565b6115b48461148f565b810160208510156115c3578190505b6115d76115cf8561148f565b830182611576565b50505b505050565b600082821c905092915050565b60006115fd600019846008026115df565b1980831691505092915050565b600061161683836115ec565b9150826002028217905092915050565b61162f82610d3d565b67ffffffffffffffff81111561164857611647610fe2565b5b6116528254611185565b61165d828285611599565b600060209050601f831160018114611690576000841561167e578287015190505b611688858261160a565b8655506116f0565b601f19841661169e8661147a565b60005b828110156116c6578489015182556001820191506020850194506020810190506116a1565b868310156116e357848901516116df601f8916826115ec565b8355505b6001600288020188555050505b505050505050565b7f4e487b7100000000000000000000000000000000000000000000000000000000600052601160045260246000fd5b600061173282610def565b915061173d83610def565b9250828203905081811115611755576117546116f8565b5b92915050565b7f455243373231205472616e7366657220746f207a65726f206164647265737300600082015250565b6000611791601f83610d48565b915061179c8261175b565b602082019050919050565b600060208201905081810360008301526117c081611784565b9050919050565b7f646f6573206e6f74206f776e2061646472657373200000000000000000000000600082015250565b60006117fd601583610d48565b9150611808826117c7565b602082019050919050565b6000602082019050818103600083015261182c816117f0565b9050919050565b600061183e82610def565b915061184983610def565b9250828201905080821115611861576118606116f8565b5b92915050565b7f455243373231203a206d696e74696e6720746f207a65726f2061646472657373600082015250565b600061189d602083610d48565b91506118a882611867565b602082019050919050565b600060208201905081810360008301526118cc81611890565b9050919050565b7f45524337323120746f6b656e20616c7265616479206578697374730000000000600082015250565b6000611909601b83610d48565b9150611914826118d3565b602082019050919050565b60006020820190508181036000830152611938816118fc565b905091905056fea2646970667358221220674b95ff8ac21068d90aea2e678dc5c0d2c28362778308682865d0b46d774beb64736f6c63430008110033",
  "immutableReferences": {},
  "source": "//SPDX-License-Identifier: MIT\r\n\r\npragma solidity ^0.8.0;\r\n\r\nimport './ERC721Connector.sol';\r\n\r\n\r\ncontract KryptoBird is ERC721Connector{\r\n\r\n    string[] public kryptoBirdz;\r\n    mapping(string => bool) _kryptoBirdzexists;\r\n\r\n    function mint(string memory _kryptoBird) public {\r\n       require(!_kryptoBirdzexists[_kryptoBird], 'error - KryptoBird exists');\r\n\r\n    //    uint _id = KryptoBirdz.push(_kryptoBird);   Depricated..\r\n       kryptoBirdz.push(_kryptoBird);\r\n       uint _id = kryptoBirdz.length - 1;\r\n       _mint(msg.sender, _id);\r\n       _kryptoBirdzexists[_kryptoBird] = true;\r\n    }\r\n\r\n constructor() ERC721Connector(\"KryptoBird\", \"KBIRDZ\") {\r\n }\r\n}\r\n",
  "sourcePath": "C:\\Users\\pc\\Desktop\\nftPlatform\\src\\contracts\\KryptoBirdz.sol",
  "compiler": {
    "name": "solc",
    "version": "0.8.17+commit.8df45f5f.Emscripten.clang"
  },
  "schemaVersion": "3.4.11",
  "updatedAt": "2022-11-27T05:32:47.894Z",
  "networkType": "ethereum",
  "devdoc": {
    "kind": "dev",
    "methods": {},
    "version": 1
  },
  "userdoc": {
    "kind": "user",
    "methods": {},
    "version": 1
  }
}