{
  "contractName": "KryptoBird",
  "abi": [
    {
      "inputs": [],
      "stateMutability": "nonpayable",
      "type": "constructor"
    },
    {
      "anonymous": false,
      "inputs": [
        {
          "indexed": true,
          "internalType": "address",
          "name": "owner",
          "type": "address"
        },
        {
          "indexed": true,
          "internalType": "address",
          "name": "approved",
          "type": "address"
        },
        {
          "indexed": true,
          "internalType": "uint256",
          "name": "tokenId",
          "type": "uint256"
        }
      ],
      "name": "Approval",
      "type": "event"
    },
    {
      "anonymous": false,
      "inputs": [
        {
          "indexed": true,
          "internalType": "address",
          "name": "from",
          "type": "address"
        },
        {
          "indexed": true,
          "internalType": "address",
          "name": "to",
          "type": "address"
        },
        {
          "indexed": true,
          "internalType": "uint256",
          "name": "tokenId",
          "type": "uint256"
        }
      ],
      "name": "Transfer",
      "type": "event"
    },
    {
      "inputs": [
        {
          "internalType": "address",
          "name": "_to",
          "type": "address"
        },
        {
          "internalType": "uint256",
          "name": "tokenId",
          "type": "uint256"
        }
      ],
      "name": "approve",
      "outputs": [],
      "stateMutability": "nonpayable",
      "type": "function"
    },
    {
      "inputs": [
        {
          "internalType": "address",
          "name": "_owner",
          "type": "address"
        }
      ],
      "name": "balanceOf",
      "outputs": [
        {
          "internalType": "uint256",
          "name": "",
          "type": "uint256"
        }
      ],
      "stateMutability": "view",
      "type": "function",
      "constant": true
    },
    {
      "inputs": [
        {
          "internalType": "uint256",
          "name": "",
          "type": "uint256"
        }
      ],
      "name": "kryptoBirdz",
      "outputs": [
        {
          "internalType": "string",
          "name": "",
          "type": "string"
        }
      ],
      "stateMutability": "view",
      "type": "function",
      "constant": true
    },
    {
      "inputs": [],
      "name": "name",
      "outputs": [
        {
          "internalType": "string",
          "name": "",
          "type": "string"
        }
      ],
      "stateMutability": "view",
      "type": "function",
      "constant": true
    },
    {
      "inputs": [
        {
          "internalType": "uint256",
          "name": "_tokenId",
          "type": "uint256"
        }
      ],
      "name": "ownerOf",
      "outputs": [
        {
          "internalType": "address",
          "name": "",
          "type": "address"
        }
      ],
      "stateMutability": "view",
      "type": "function",
      "constant": true
    },
    {
      "inputs": [],
      "name": "symbol",
      "outputs": [
        {
          "internalType": "string",
          "name": "",
          "type": "string"
        }
      ],
      "stateMutability": "view",
      "type": "function",
      "constant": true
    },
    {
      "inputs": [
        {
          "internalType": "uint256",
          "name": "index",
          "type": "uint256"
        }
      ],
      "name": "tokenByIndex",
      "outputs": [
        {
          "internalType": "uint256",
          "name": "",
          "type": "uint256"
        }
      ],
      "stateMutability": "view",
      "type": "function",
      "constant": true
    },
    {
      "inputs": [
        {
          "internalType": "address",
          "name": "owner",
          "type": "address"
        },
        {
          "internalType": "uint256",
          "name": "index",
          "type": "uint256"
        }
      ],
      "name": "tokenOfOwnerByIndex",
      "outputs": [
        {
          "internalType": "uint256",
          "name": "",
          "type": "uint256"
        }
      ],
      "stateMutability": "view",
      "type": "function",
      "constant": true
    },
    {
      "inputs": [],
      "name": "totalSupply",
      "outputs": [
        {
          "internalType": "uint256",
          "name": "",
          "type": "uint256"
        }
      ],
      "stateMutability": "view",
      "type": "function",
      "constant": true
    },
    {
      "inputs": [
        {
          "internalType": "address",
          "name": "_from",
          "type": "address"
        },
        {
          "internalType": "address",
          "name": "_to",
          "type": "address"
        },
        {
          "internalType": "uint256",
          "name": "_tokenId",
          "type": "uint256"
        }
      ],
      "name": "transferFrom",
      "outputs": [],
      "stateMutability": "nonpayable",
      "type": "function"
    },
    {
      "inputs": [
        {
          "internalType": "string",
          "name": "_kryptoBird",
          "type": "string"
        }
      ],
      "name": "mint",
      "outputs": [],
      "stateMutability": "nonpayable",
      "type": "function"
    }
  ],
  "bytecode": "0x60806040523480156200001157600080fd5b506040518060400160405280600a81526020017f4b727970746f42697264000000000000000000000000000000000000000000008152506040518060400160405280600681526020017f4b424952445a00000000000000000000000000000000000000000000000000008152508181816000908162000091919062000328565b508060019081620000a3919062000328565b50505050506200040f565b600081519050919050565b7f4e487b7100000000000000000000000000000000000000000000000000000000600052604160045260246000fd5b7f4e487b7100000000000000000000000000000000000000000000000000000000600052602260045260246000fd5b600060028204905060018216806200013057607f821691505b602082108103620001465762000145620000e8565b5b50919050565b60008190508160005260206000209050919050565b60006020601f8301049050919050565b600082821b905092915050565b600060088302620001b07fffffffffffffffffffffffffffffffffffffffffffffffffffffffffffffffff8262000171565b620001bc868362000171565b95508019841693508086168417925050509392505050565b6000819050919050565b6000819050919050565b60006200020962000203620001fd84620001d4565b620001de565b620001d4565b9050919050565b6000819050919050565b6200022583620001e8565b6200023d620002348262000210565b8484546200017e565b825550505050565b600090565b6200025462000245565b620002618184846200021a565b505050565b5b8181101562000289576200027d6000826200024a565b60018101905062000267565b5050565b601f821115620002d857620002a2816200014c565b620002ad8462000161565b81016020851015620002bd578190505b620002d5620002cc8562000161565b83018262000266565b50505b505050565b600082821c905092915050565b6000620002fd60001984600802620002dd565b1980831691505092915050565b6000620003188383620002ea565b9150826002028217905092915050565b6200033382620000ae565b67ffffffffffffffff8111156200034f576200034e620000b9565b5b6200035b825462000117565b620003688282856200028d565b600060209050601f831160018114620003a057600084156200038b578287015190505b6200039785826200030a565b86555062000407565b601f198416620003b0866200014c565b60005b82811015620003da57848901518255600182019150602085019450602081019050620003b3565b86831015620003fa5784890151620003f6601f891682620002ea565b8355505b6001600288020188555050505b505050505050565b611d43806200041f6000396000f3fe608060405234801561001057600080fd5b50600436106100a95760003560e01c80634f6ccce7116100715780634f6ccce7146101525780636352211e1461018257806370a08231146101b257806393ab6e56146101e257806395d89b4114610212578063d85d3d2714610230576100a9565b806306fdde03146100ae578063095ea7b3146100cc57806318160ddd146100e857806323b872dd146101065780632f745c5914610122575b600080fd5b6100b661024c565b6040516100c39190611031565b60405180910390f35b6100e660048036038101906100e191906110fb565b6102de565b005b6100f0610479565b6040516100fd919061114a565b60405180910390f35b610120600480360381019061011b9190611165565b610486565b005b61013c600480360381019061013791906110fb565b6104a9565b604051610149919061114a565b60405180910390f35b61016c600480360381019061016791906111b8565b610559565b604051610179919061114a565b60405180910390f35b61019c600480360381019061019791906111b8565b6105ca565b6040516101a991906111f4565b60405180910390f35b6101cc60048036038101906101c7919061120f565b61067b565b6040516101d9919061114a565b60405180910390f35b6101fc60048036038101906101f791906111b8565b610732565b6040516102099190611031565b60405180910390f35b61021a6107de565b6040516102279190611031565b60405180910390f35b61024a60048036038101906102459190611371565b610870565b005b60606000805461025b906113e9565b80601f0160208091040260200160405190810160405280929190818152602001828054610287906113e9565b80156102d45780601f106102a9576101008083540402835291602001916102d4565b820191906000526020600020905b8154815290600101906020018083116102b757829003601f168201915b5050505050905090565b60006102e9826105ca565b90508073ffffffffffffffffffffffffffffffffffffffff168373ffffffffffffffffffffffffffffffffffffffff1603610359576040517f08c379a00000000000000000000000000000000000000000000000000000000081526004016103509061148c565b60405180910390fd5b8073ffffffffffffffffffffffffffffffffffffffff163373ffffffffffffffffffffffffffffffffffffffff16146103c7576040517f08c379a00000000000000000000000000000000000000000000000000000000081526004016103be906114f8565b60405180910390fd5b826004600084815260200190815260200160002060006101000a81548173ffffffffffffffffffffffffffffffffffffffff021916908373ffffffffffffffffffffffffffffffffffffffff160217905550818373ffffffffffffffffffffffffffffffffffffffff168273ffffffffffffffffffffffffffffffffffffffff167f8c5be1e5ebec7d5bd14f71427d1e84f3dd0314c0f7b2291e5b200ac8c7c3b92560405160405180910390a4505050565b6000600580549050905090565b610490338261096c565b61049957600080fd5b6104a48383836109fb565b505050565b60006104b48361067b565b82106104f5576040517f08c379a00000000000000000000000000000000000000000000000000000000081526004016104ec90611564565b60405180910390fd5b600760008473ffffffffffffffffffffffffffffffffffffffff1673ffffffffffffffffffffffffffffffffffffffff168152602001908152602001600020828154811061054657610545611584565b5b9060005260206000200154905092915050565b6000610563610479565b82106105a4576040517f08c379a000000000000000000000000000000000000000000000000000000000815260040161059b906115ff565b60405180910390fd5b600582815481106105b8576105b7611584565b5b90600052602060002001549050919050565b6000806002600084815260200190815260200160002060009054906101000a900473ffffffffffffffffffffffffffffffffffffffff169050600073ffffffffffffffffffffffffffffffffffffffff168173ffffffffffffffffffffffffffffffffffffffff1603610672576040517f08c379a000000000000000000000000000000000000000000000000000000000815260040161066990611691565b60405180910390fd5b80915050919050565b60008073ffffffffffffffffffffffffffffffffffffffff168273ffffffffffffffffffffffffffffffffffffffff16036106eb576040517f08c379a00000000000000000000000000000000000000000000000000000000081526004016106e2906116fd565b60405180910390fd5b600360008373ffffffffffffffffffffffffffffffffffffffff1673ffffffffffffffffffffffffffffffffffffffff168152602001908152602001600020549050919050565b6009818154811061074257600080fd5b90600052602060002001600091509050805461075d906113e9565b80601f0160208091040260200160405190810160405280929190818152602001828054610789906113e9565b80156107d65780601f106107ab576101008083540402835291602001916107d6565b820191906000526020600020905b8154815290600101906020018083116107b957829003601f168201915b505050505081565b6060600180546107ed906113e9565b80601f0160208091040260200160405190810160405280929190818152602001828054610819906113e9565b80156108665780601f1061083b57610100808354040283529160200191610866565b820191906000526020600020905b81548152906001019060200180831161084957829003601f168201915b5050505050905090565b600a816040516108809190611759565b908152602001604051809103902060009054906101000a900460ff16156108dc576040517f08c379a00000000000000000000000000000000000000000000000000000000081526004016108d3906117bc565b60405180910390fd5b6009819080600181540180825580915050600190039060005260206000200160009091909190915090816109109190611988565b50600060016009805490506109259190611a89565b90506109313382610c40565b6001600a836040516109439190611759565b908152602001604051809103902060006101000a81548160ff0219169083151502179055505050565b600061097782610c61565b6109b6576040517f08c379a00000000000000000000000000000000000000000000000000000000081526004016109ad90611b09565b60405180910390fd5b60006109c1836105ca565b90508073ffffffffffffffffffffffffffffffffffffffff168473ffffffffffffffffffffffffffffffffffffffff161491505092915050565b600073ffffffffffffffffffffffffffffffffffffffff168273ffffffffffffffffffffffffffffffffffffffff1603610a6a576040517f08c379a0000000000000000000000000000000000000000000000000000000008152600401610a6190611b75565b60405180910390fd5b8273ffffffffffffffffffffffffffffffffffffffff16610a8a826105ca565b73ffffffffffffffffffffffffffffffffffffffff1614610ae0576040517f08c379a0000000000000000000000000000000000000000000000000000000008152600401610ad790611be1565b60405180910390fd5b6001600360008573ffffffffffffffffffffffffffffffffffffffff1673ffffffffffffffffffffffffffffffffffffffff1681526020019081526020016000206000828254610b309190611a89565b925050819055506001600360008473ffffffffffffffffffffffffffffffffffffffff1673ffffffffffffffffffffffffffffffffffffffff1681526020019081526020016000206000828254610b879190611c01565b92505081905550816002600083815260200190815260200160002060006101000a81548173ffffffffffffffffffffffffffffffffffffffff021916908373ffffffffffffffffffffffffffffffffffffffff160217905550808273ffffffffffffffffffffffffffffffffffffffff168473ffffffffffffffffffffffffffffffffffffffff167fddf252ad1be2c89b69c2b068fc378daa952ba7f163c4a11628f55a4df523b3ef60405160405180910390a4505050565b610c4a8282610cd3565b610c5381610e94565b610c5d8282610edd565b5050565b6000806002600084815260200190815260200160002060009054906101000a900473ffffffffffffffffffffffffffffffffffffffff169050600073ffffffffffffffffffffffffffffffffffffffff168173ffffffffffffffffffffffffffffffffffffffff161415915050919050565b600073ffffffffffffffffffffffffffffffffffffffff168273ffffffffffffffffffffffffffffffffffffffff1603610d42576040517f08c379a0000000000000000000000000000000000000000000000000000000008152600401610d3990611c81565b60405180910390fd5b610d4b81610c61565b15610d8b576040517f08c379a0000000000000000000000000000000000000000000000000000000008152600401610d8290611ced565b60405180910390fd5b816002600083815260200190815260200160002060006101000a81548173ffffffffffffffffffffffffffffffffffffffff021916908373ffffffffffffffffffffffffffffffffffffffff1602179055506001600360008473ffffffffffffffffffffffffffffffffffffffff1673ffffffffffffffffffffffffffffffffffffffff1681526020019081526020016000206000828254610e2d9190611c01565b92505081905550808273ffffffffffffffffffffffffffffffffffffffff16600073ffffffffffffffffffffffffffffffffffffffff167fddf252ad1be2c89b69c2b068fc378daa952ba7f163c4a11628f55a4df523b3ef60405160405180910390a45050565b6005805490506006600083815260200190815260200160002081905550600581908060018154018082558091505060019003906000526020600020016000909190919091505550565b600760008373ffffffffffffffffffffffffffffffffffffffff1673ffffffffffffffffffffffffffffffffffffffff168152602001908152602001600020805490506008600083815260200190815260200160002081905550600760008373ffffffffffffffffffffffffffffffffffffffff1673ffffffffffffffffffffffffffffffffffffffff1681526020019081526020016000208190806001815401808255809150506001900390600052602060002001600090919091909150555050565b600081519050919050565b600082825260208201905092915050565b60005b83811015610fdb578082015181840152602081019050610fc0565b60008484015250505050565b6000601f19601f8301169050919050565b600061100382610fa1565b61100d8185610fac565b935061101d818560208601610fbd565b61102681610fe7565b840191505092915050565b6000602082019050818103600083015261104b8184610ff8565b905092915050565b6000604051905090565b600080fd5b600080fd5b600073ffffffffffffffffffffffffffffffffffffffff82169050919050565b600061109282611067565b9050919050565b6110a281611087565b81146110ad57600080fd5b50565b6000813590506110bf81611099565b92915050565b6000819050919050565b6110d8816110c5565b81146110e357600080fd5b50565b6000813590506110f5816110cf565b92915050565b600080604083850312156111125761111161105d565b5b6000611120858286016110b0565b9250506020611131858286016110e6565b9150509250929050565b611144816110c5565b82525050565b600060208201905061115f600083018461113b565b92915050565b60008060006060848603121561117e5761117d61105d565b5b600061118c868287016110b0565b935050602061119d868287016110b0565b92505060406111ae868287016110e6565b9150509250925092565b6000602082840312156111ce576111cd61105d565b5b60006111dc848285016110e6565b91505092915050565b6111ee81611087565b82525050565b600060208201905061120960008301846111e5565b92915050565b6000602082840312156112255761122461105d565b5b6000611233848285016110b0565b91505092915050565b600080fd5b600080fd5b7f4e487b7100000000000000000000000000000000000000000000000000000000600052604160045260246000fd5b61127e82610fe7565b810181811067ffffffffffffffff8211171561129d5761129c611246565b5b80604052505050565b60006112b0611053565b90506112bc8282611275565b919050565b600067ffffffffffffffff8211156112dc576112db611246565b5b6112e582610fe7565b9050602081019050919050565b82818337600083830152505050565b600061131461130f846112c1565b6112a6565b9050828152602081018484840111156113305761132f611241565b5b61133b8482856112f2565b509392505050565b600082601f8301126113585761135761123c565b5b8135611368848260208601611301565b91505092915050565b6000602082840312156113875761138661105d565b5b600082013567ffffffffffffffff8111156113a5576113a4611062565b5b6113b184828501611343565b91505092915050565b7f4e487b7100000000000000000000000000000000000000000000000000000000600052602260045260246000fd5b6000600282049050600182168061140157607f821691505b602082108103611414576114136113ba565b5b50919050565b7f4572726f72202d20617070726f76616c20746f2063757272656e74206f776e6560008201527f7200000000000000000000000000000000000000000000000000000000000000602082015250565b6000611476602183610fac565b91506114818261141a565b604082019050919050565b600060208201905081810360008301526114a581611469565b9050919050565b7f63757272656e742063616c6c6572206973206e7420746f6b656e206f776e6572600082015250565b60006114e2602083610fac565b91506114ed826114ac565b602082019050919050565b60006020820190508181036000830152611511816114d5565b9050919050565b7f6f776e657220696e646578206f7574206f6620626f756e647300000000000000600082015250565b600061154e601983610fac565b915061155982611518565b602082019050919050565b6000602082019050818103600083015261157d81611541565b9050919050565b7f4e487b7100000000000000000000000000000000000000000000000000000000600052603260045260246000fd5b7f676c6f62616c20696e646578206f7574206f6620626f756e6473000000000000600082015250565b60006115e9601a83610fac565b91506115f4826115b3565b602082019050919050565b60006020820190508181036000830152611618816115dc565b9050919050565b7f6f776e657220717565727920666f72206e6f6e20657873697374616e74206e6660008201527f7400000000000000000000000000000000000000000000000000000000000000602082015250565b600061167b602183610fac565b91506116868261161f565b604082019050919050565b600060208201905081810360008301526116aa8161166e565b9050919050565b7f746f6b656e206e6f6e2065787369747300000000000000000000000000000000600082015250565b60006116e7601083610fac565b91506116f2826116b1565b602082019050919050565b60006020820190508181036000830152611716816116da565b9050919050565b600081905092915050565b600061173382610fa1565b61173d818561171d565b935061174d818560208601610fbd565b80840191505092915050565b60006117658284611728565b915081905092915050565b7f6572726f72202d204b727970746f426972642065786973747300000000000000600082015250565b60006117a6601983610fac565b91506117b182611770565b602082019050919050565b600060208201905081810360008301526117d581611799565b9050919050565b60008190508160005260206000209050919050565b60006020601f8301049050919050565b600082821b905092915050565b60006008830261183e7fffffffffffffffffffffffffffffffffffffffffffffffffffffffffffffffff82611801565b6118488683611801565b95508019841693508086168417925050509392505050565b6000819050919050565b600061188561188061187b846110c5565b611860565b6110c5565b9050919050565b6000819050919050565b61189f8361186a565b6118b36118ab8261188c565b84845461180e565b825550505050565b600090565b6118c86118bb565b6118d3818484611896565b505050565b5b818110156118f7576118ec6000826118c0565b6001810190506118d9565b5050565b601f82111561193c5761190d816117dc565b611916846117f1565b81016020851015611925578190505b611939611931856117f1565b8301826118d8565b50505b505050565b600082821c905092915050565b600061195f60001984600802611941565b1980831691505092915050565b6000611978838361194e565b9150826002028217905092915050565b61199182610fa1565b67ffffffffffffffff8111156119aa576119a9611246565b5b6119b482546113e9565b6119bf8282856118fb565b600060209050601f8311600181146119f257600084156119e0578287015190505b6119ea858261196c565b865550611a52565b601f198416611a00866117dc565b60005b82811015611a2857848901518255600182019150602085019450602081019050611a03565b86831015611a455784890151611a41601f89168261194e565b8355505b6001600288020188555050505b505050505050565b7f4e487b7100000000000000000000000000000000000000000000000000000000600052601160045260246000fd5b6000611a94826110c5565b9150611a9f836110c5565b9250828203905081811115611ab757611ab6611a5a565b5b92915050565b7f746f6b656e20646f6573206e6f74206578697374000000000000000000000000600082015250565b6000611af3601483610fac565b9150611afe82611abd565b602082019050919050565b60006020820190508181036000830152611b2281611ae6565b9050919050565b7f455243373231205472616e7366657220746f207a65726f206164647265737300600082015250565b6000611b5f601f83610fac565b9150611b6a82611b29565b602082019050919050565b60006020820190508181036000830152611b8e81611b52565b9050919050565b7f646f6573206e6f74206f776e2061646472657373200000000000000000000000600082015250565b6000611bcb601583610fac565b9150611bd682611b95565b602082019050919050565b60006020820190508181036000830152611bfa81611bbe565b9050919050565b6000611c0c826110c5565b9150611c17836110c5565b9250828201905080821115611c2f57611c2e611a5a565b5b92915050565b7f455243373231203a206d696e74696e6720746f207a65726f2061646472657373600082015250565b6000611c6b602083610fac565b9150611c7682611c35565b602082019050919050565b60006020820190508181036000830152611c9a81611c5e565b9050919050565b7f45524337323120746f6b656e20616c7265616479206578697374730000000000600082015250565b6000611cd7601b83610fac565b9150611ce282611ca1565b602082019050919050565b60006020820190508181036000830152611d0681611cca565b905091905056fea2646970667358221220ed16f45e1e6a4c92fa2698afca602d94245eb9219322c8fdc5f9aecdb5919b6264736f6c63430008110033",
  "immutableReferences": {},
  "source": "//SPDX-License-Identifier: MIT\r\n\r\npragma solidity ^0.8.0;\r\n\r\nimport './ERC721Connector.sol';\r\n\r\n\r\ncontract KryptoBird is ERC721Connector{\r\n\r\n    string[] public kryptoBirdz;\r\n    mapping(string => bool) _kryptoBirdzexists;\r\n\r\n    function mint(string memory _kryptoBird) public {\r\n       require(!_kryptoBirdzexists[_kryptoBird], 'error - KryptoBird exists');\r\n\r\n    //    uint _id = KryptoBirdz.push(_kryptoBird);   Depricated..\r\n       kryptoBirdz.push(_kryptoBird);\r\n       uint _id = kryptoBirdz.length - 1;\r\n       _mint(msg.sender, _id);\r\n       _kryptoBirdzexists[_kryptoBird] = true;\r\n    }\r\n\r\n constructor() ERC721Connector(\"KryptoBird\", \"KBIRDZ\") {\r\n }\r\n}\r\n",
  "sourcePath": "C:\\Users\\pc\\desktop\\nftPlatform\\src\\contracts\\KryptoBirdz.sol",
  "compiler": {
    "name": "solc",
    "version": "0.8.17+commit.8df45f5f.Emscripten.clang"
  },
  "schemaVersion": "3.4.11",
  "updatedAt": "2022-11-28T05:27:52.556Z",
  "networkType": "ethereum",
  "devdoc": {
    "kind": "dev",
    "methods": {},
    "version": 1
  },
  "userdoc": {
    "kind": "user",
    "methods": {},
    "version": 1
  }
}